:100000000C9463000C948B000C948B000C9477037D
:100010000C9477030C9477030C948B000C948B0056
:100020000C948B000C948B000C948B000C948B0024
:100030000C948B000C948B000C948B000C948B0014
:100040000C94D5020C948B000C9445030C941F0364
:100050000C948B000C948B000C948B000C948B00F4
:100060000C948B000C948B000000000024002700EF
:100070002A0000000008000201000003040700003D
:1000800000000000000000000000230026002900FE
:1000900000000000250028002B00040404040404D0
:1000A0000404020202020202030303030303010227
:1000B00004081020408001020408102001020408F6
:1000C0001020EF030E0611241FBECFEFD8E0DEBFD5
:1000D000CDBF11E0A0E0B1E0EAECFCE002C0059089
:1000E0000D92A634B107D9F722E0A6E4B1E001C031
:1000F0001D92AF34B207E1F710E0C2E6D0E004C0D1
:100100002197FE010E945206C136D107C9F70E940D
:100110009A040C9458060C940000AF92BF92CF92B0
:10012000DF92EF92FF920F931F93CF93DF936C01B7
:100130007B018B01040F151FEB015E01AE18BF0898
:10014000C017D10759F06991D601ED91FC9101904A
:10015000F081E02DC6010995892B79F7C501DF9162
:10016000CF911F910F91FF90EF90DF90CF90BF90B4
:10017000AF900895FC01538D448D252F30E0842FDE
:1001800090E0821B930B541710F0CF9608950197BF
:100190000895FC01918D828D981761F0A28DAE0FAC
:1001A000BF2FB11D5D968C91928D9F5F9F73928F33
:1001B00090E008958FEF9FEF0895FC01918D828D5F
:1001C000981731F0828DE80FF11D858D90E008952C
:1001D0008FEF9FEF0895FC01918D228D892F90E084
:1001E000805C9F4F821B91098F739927089583E943
:1001F00091E00E94EB0021E0892B09F420E0822F9E
:10020000089580E090E0892B29F00E94F700811189
:100210000C9400000895FC01A48DA80FB92FB11D06
:10022000A35ABF4F2C91848D90E001968F7399272C
:10023000848FA689B7892C93A089B1898C9183700A
:1002400080648C93938D848D981306C00288F38903
:10025000E02D80818F7D80830895EF92FF920F9330
:100260001F93CF93DF93EC0181E0888F9B8D8C8D62
:1002700098131AC0E889F989808185FF15C09FB756
:10028000F894EE89FF896083E889F9898081837019
:10029000806480839FBF81E090E0DF91CF911F91C8
:1002A0000F91FF90EF900895F62E0B8D10E00F5FE9
:1002B0001F4F0F731127E02E8C8D8E110CC00FB6BF
:1002C00007FCFACFE889F989808185FFF5CFCE0157
:1002D0000E940B01F1CFEB8DEC0FFD2FF11DE35AC6
:1002E000FF4FF0829FB7F8940B8FEA89FB898081DA
:1002F0008062CFCFCF93DF93EC01888D8823B9F054
:10030000AA89BB89E889F9898C9185FD03C0808120
:1003100086FD0DC00FB607FCF7CF8C9185FFF2CF9D
:10032000808185FFEDCFCE010E940B01E9CFDF91E7
:10033000CF91089590E0FC01EE58FF4F2491FC010D
:10034000E255FF4F3491FC01E656FF4FE491EE2356
:10035000C9F0222339F0233001F1A8F4213019F13A
:10036000223029F1F0E0EE0FFF1FE057FF4FA5917B
:10037000B4918FB7F894EC91611126C030953E236B
:100380003C938FBF08952730A9F02830C9F024305E
:1003900049F7809180008F7D03C0809180008F7726
:1003A00080938000DFCF84B58F7784BDDBCF84B5A9
:1003B0008F7DFBCF8091B0008F778093B000D2CF3C
:1003C0008091B0008F7DF9CF3E2BDACFCF93DF93B2
:1003D00090E0FC01E255FF4F249186569F4FFC01AF
:1003E00084918823D1F090E0880F991FFC01E8598F
:1003F000FF4FA591B491FC01E057FF4FC591D491F7
:1004000061110EC09FB7F8948C91E22FE0958E2376
:100410008C932881E223E8839FBFDF91CF910895D9
:100420008FB7F894EC91E22BEC938FBFF6CF20912D
:100430008801309189012817390771F4909186015C
:1004400080918701981741F0E0918601F0E0EA5B26
:10045000FE4F808190E008958FEF9FEF08950895FB
:10046000EF92FF920F931F93CF93DF93DC015C9683
:10047000ED90FC905D97E114F10479F481E090E057
:1004800013969C938E93129790E080E0DF91CF912A
:100490001F910F91FF90EF9008955196ED91FC916F
:1004A000529750968C915097982F90950FB75E96D3
:1004B0002C915E97122F127021FD6095F894208187
:1004C000112319F1282B2083E7012197F1F728E068
:1004D000462F50E0308160FF1AC0382B3083E7018F
:1004E0002197F1F7BA0175956795215089F7112386
:1004F00081F08081892380830FBF5C968D919C91D0
:100500000197F1F781E090E0C1CF2923DCCF3923B7
:10051000E5CF9081892BEFCF20918801309189011F
:100520002817390771F4809187012091860190E0A6
:10053000805C9F4F821B910960E470E00E942A0654
:10054000089590E080E0089520918801309189011C
:1005500028173907B9F4909186018091870198177F
:1005600089F0E0918601F0E0EA5BFE4F8081209106
:10057000860130E02F5F3F4F2F7333272093860192
:1005800090E008958FEF9FEF089590E080E0089548
:10059000FC0101900020E9F73197AF01481B590B8E
:1005A000BC0183E991E00C948D001F920F920FB66D
:1005B0000F9211242F933F938F939F93AF93BF93E9
:1005C00080918F0190919001A0919101B091920141
:1005D00030918E0123E0230F2D3758F50196A11D90
:1005E000B11D20938E0180938F0190939001A09371
:1005F0009101B093920180918A0190918B01A09119
:100600008C01B0918D010196A11DB11D80938A01CD
:1006100090938B01A0938C01B0938D01BF91AF910A
:100620009F918F913F912F910F900FBE0F901F9030
:10063000189526E8230F0296A11DB11DD2CF1F9257
:100640000F920FB60F9211242F933F934F935F9306
:100650006F937F938F939F93AF93BF93EF93FF938A
:1006600083E991E00E940B01FF91EF91BF91AF915F
:100670009F918F917F916F915F914F913F912F91BA
:100680000F900FBE0F901F9018951F920F920FB6EC
:100690000F9211242F938F939F93EF93FF93E091E9
:1006A000A301F091A4018081E091A901F091AA0138
:1006B00082FD1BC090818091AC018F5F8F73209170
:1006C000AD01821741F0E091AC01F0E0ED56FE4F34
:1006D000958F8093AC01FF91EF919F918F912F9116
:1006E0000F900FBE0F901F9018958081F4CF1F922E
:1006F0000F920FB60F9211242F933F934F935F9356
:100700006F937F938F939F93AF93BF93EF93FF93D9
:10071000E0918801F0918901309749F0A685B7856D
:100720008585968D91FF14C09C918923A1F4FF913A
:10073000EF91BF91AF919F918F917F916F915F9159
:100740004F913F912F910F900FBE0F901F901895D2
:100750009C91892361F7A389B4899C9185898095AF
:1007600089238C93868997890197F1F7608D718D24
:10077000A685B785558538E020E0CB010197F1F7D4
:10078000822F90E095958795282F4C91452309F06D
:100790002068315091F7868D81FD209580918701E9
:1007A00090E001968F73992730918601381799F060
:1007B000A0918701B0E0AA5BBE4F2C938093870184
:1007C000828D938D0197F1F7A389B4898C919589D6
:1007D000892B8C93ACCF868D8160868FF1CF109260
:1007E00096011092950188EE93E0A0E0B0E080932E
:1007F000970190939801A0939901B0939A0124E0F6
:1008000031E0309394012093930125EC30E0309354
:10081000A00120939F0124EC30E03093A2012093AB
:10082000A10120EC30E03093A4012093A30121EC3E
:1008300030E03093A6012093A50122EC30E0309304
:10084000A8012093A70126EC30E03093AA01209361
:10085000A9011092AC011092AD011092AE0110925C
:10086000AF011092330210923202809334029093BF
:100870003502A0933602B093370286E191E090935F
:100880003102809330021092470210924602109279
:1008900049021092480210924B0210924A021092A2
:1008A0004D0210924C0260914E026E7F6D7F6093FC
:1008B0004E026695617081E068278CE00E949A0183
:1008C00061E08CE00E94E601EAEBF0E0E491E09365
:1008D0004002E6EAF0E0E491F0E0EE0FFF1FE0579F
:1008E000FF4F85919491909342028093410260E082
:1008F0008BE00E94E60180914E0281FD04C061E020
:100900008BE00E949A018BE080933C02E9EBF0E0DF
:10091000E491E0933D02E5EAF0E0E491F0E0EE0FCF
:10092000FF1FEA57FF4F8591949190933F02809368
:100930003E020895789484B5826084BD84B5816058
:1009400084BD85B5826085BD85B5816085BD80919A
:100950006E00816080936E00109281008091810012
:10096000826080938100809181008160809381000A
:10097000809180008160809380008091B1008460CC
:100980008093B1008091B00081608093B00080912D
:100990007A00846080937A0080917A0082608093EC
:1009A0007A0080917A00816080937A0080917A0049
:1009B000806880937A001092C10010924B021092CE
:1009C0004A02109249021092480210924702109275
:1009D00046028DE991E090934D0280934C029091F4
:1009E0003C02963108F047C02DEB30E030934702CF
:1009F000209346022BE931E03093490220934802CC
:100A00002CE231E030934B0220934A02209168009F
:100A100084E0983048F031E09E3008F430E081E026
:100A200001C0880F3A95EAF7822B809368002DE683
:100A300030E0983050F02BE630E09E3030F02CE67D
:100A400030E0963110F030E020E030934402209303
:100A50004302292F30E0983008F0AEC081E001C099
:100A6000880F9A95EAF78093450280914C02909105
:100A70004D020197F1F780914A0290914B02892B28
:100A800049F1E0918801F091890182E0E033F807B3
:100A900009F1309739F0A389B4899C9185898095B3
:100AA00089238C9380914E028E7F80934E02109208
:100AB00087011092860180E392E0909389018093F0
:100AC0008801E0914302F0914402808190914502B7
:100AD000892B8083E091A301F091A40182E08083BF
:100AE000E0919F01F091A0011082E091A101F091AD
:100AF000A2018FEC80831092AB01E091A701F091ED
:100B0000A80186E08083E091A501F091A601808193
:100B100080618083E091A501F091A60180818860C9
:100B20008083E091A501F091A60180818068808397
:100B3000E091A501F091A60180818F7D808384E200
:100B400091E00E94C80289E391E00E94C80261E03E
:100B500082E00E94E60161E083E00E94E60161E03C
:100B600084E00E94E60161E085E00E94E60100E089
:100B700010E080E392E00E948C02892B09F442C0CD
:100B800080E392E00E94A402C82F8CE391E00E94CF
:100B9000C8026C2F83E991E00E942D0189E391E066
:100BA0000E94C80261E0C13419F0C13691F460E0DE
:100BB00082E00E949A01DDCF9E3040F42850310936
:100BC00081E001C0880F2A95EAF74DCF2E503109F8
:100BD000F7CF61E0C23419F0C23619F460E083E067
:100BE000E8CF61E0C33419F0C33619F460E084E063
:100BF000E0CF61E0C43421F0C43609F0BACF60E040
:100C000085E0D7CF0115110509F4B3CF0E94F70095
:100C1000882309F4AECF0E940000ABCF86E191E0BB
:100C200090933102809330028091880190918901E4
:100C30008053924071F4E0914302F091440290811C
:100C400080914502809589238083109289011092BA
:100C50008801089597FB072E16F4009407D077FDBE
:100C600009D00E943E0607FC05D03EF49095819580
:100C70009F4F0895709561957F4F0895AA1BBB1BE8
:100C800051E107C0AA1FBB1FA617B70710F0A61B8C
:100C9000B70B881F991F5A95A9F780959095BC01AD
:100CA000CD010895EE0FFF1F0590F491E02D0994FA
:100CB00010E0C2E6D0E004C0FE010E945206219678
:0A0CC000C336D107C9F7F894FFCF3F
:100CCA00000000002D018D00BA007A01EB00C90076
:100CDA00DD000000000030028D00C5022F028C02E8
:100CEA00A4021702446967697465206F7320636FF1
:100CFA006D616E646F733A20000D0A00436F6D6177
:060D0A006E646F3A200048
:107E0000112484B714BE81FFF0D085E080938100F7
:107E100082E08093C00088E18093C10086E0809377
:107E2000C20080E18093C4008EE0C9D0259A86E02C
:107E300020E33CEF91E0309385002093840096BBD3
:107E4000B09BFECF1D9AA8958150A9F7CC24DD24C4
:107E500088248394B5E0AB2EA1E19A2EF3E0BF2EE7
:107E6000A2D0813461F49FD0082FAFD0023811F036
:107E7000013811F484E001C083E08DD089C08234E0
:107E800011F484E103C0853419F485E0A6D080C0E4
:107E9000853579F488D0E82EFF2485D0082F10E0AE
:107EA000102F00270E291F29000F111F8ED06801E7
:107EB0006FC0863521F484E090D080E0DECF843638
:107EC00009F040C070D06FD0082F6DD080E0C81688
:107ED00080E7D80618F4F601B7BEE895C0E0D1E017
:107EE00062D089930C17E1F7F0E0CF16F0E7DF06D8
:107EF00018F0F601B7BEE89568D007B600FCFDCFD4
:107F0000A601A0E0B1E02C9130E011968C91119780
:107F100090E0982F8827822B932B1296FA010C0160
:107F200087BEE89511244E5F5F4FF1E0A038BF0790
:107F300051F7F601A7BEE89507B600FCFDCF97BE46
:107F4000E89526C08437B1F42ED02DD0F82E2BD052
:107F50003CD0F601EF2C8F010F5F1F4F84911BD097
:107F6000EA94F801C1F70894C11CD11CFA94CF0C13
:107F7000D11C0EC0853739F428D08EE10CD085E9AC
:107F80000AD08FE07ACF813511F488E018D01DD067
:107F900080E101D065CF982F8091C00085FFFCCF94
:107FA0009093C60008958091C00087FFFCCF809118
:107FB000C00084FD01C0A8958091C6000895E0E648
:107FC000F0E098E1908380830895EDDF803219F02E
:107FD00088E0F5DFFFCF84E1DECF1F93182FE3DFCA
:107FE0001150E9F7F2DF1F91089580E0E8DFEE27F6
:047FF000FF270994CA
:027FFE00040479
:0400000300007E007B
:00000001FF
