:100000000C945C000C9479000C9479000C947900A9
:100010000C9479000C9479000C9479000C9479007C
:100020000C9479000C9479000C9479000C9479006C
:100030000C9479000C9479000C9479000C9479005C
:100040000C9464020C9479000C9479000C9479005F
:100050000C9479000C9479000C9479000C9479003C
:100060000C9479000C947900000000080002010053
:100070000003040700000000000000000000000072
:10008000250028002B0000000000240027002A0083
:10009000040404040404040402020202020203032E
:1000A0000303030301020408102040800102040836
:1000B000102001020408102011241FBECFEFD8E049
:1000C000DEBFCDBF11E0A0E0B1E0E8ECF8E002C097
:1000D00005900D92A430B107D9F721E0A4E0B1E07A
:1000E00001C01D92AF30B207E1F70E94AE020C943E
:1000F00062040C94000090E0FC01EC55FF4F249149
:1001000080579F4FFC018491882399F090E0880FDD
:10011000991FFC01EA57FF4FA591B491FC01E458E7
:10012000FF4F859194918FB7F894EC91E22BEC936B
:100130008FBF089590E0FC01E859FF4F2491FC0126
:10014000EC55FF4F3491FC01E057FF4FE491EE2353
:10015000C9F0222339F0233001F1A8F4213019F13C
:10016000223029F1F0E0EE0FFF1FE458FF4FA59178
:10017000B4918FB7F894EC91611126C030953E236D
:100180003C938FBF08952730A9F02830C9F0243060
:1001900049F7809180008F7D03C0809180008F7728
:1001A00080938000DFCF84B58F7784BDDBCF84B5AB
:1001B0008F7DFBCF8091B0008F778093B000D2CF3E
:1001C0008091B0008F7DF9CF3E2BDACF3FB7F89406
:1001D0008091090190910A01A0910B01B0910C014D
:1001E00026B5A89B05C02F3F19F00196A11DB11D92
:1001F0003FBFBA2FA92F982F8827BC01CD01620FCE
:10020000711D811D911D42E0660F771F881F991F88
:100210004A95D1F70895E0910D01F0910E013197C3
:10022000E031F10508F04FC1E85EFE4F0C945C042C
:10023000280148014E015801660178018E01A8018C
:10024000C601E501EB01F501030215022B0245028F
:1002500060E08DE00E949A0061E088E00E949A00D0
:1002600061E081E10E949A0061E08AE00E949A00C8
:1002700061E085E00E949A0061E080E10E949A00BE
:1002800061E084E00E949A0061E08EE00C949A00A4
:1002900061E08DE00E949A0060E0DFCF61E08DE0D8
:1002A0000E949A0061E088E00E949A0060E0D9CF45
:1002B00061E08DE00E949A0061E088E00E949A006F
:1002C00061E081E10E949A0060E0CFCF61E08DE0C3
:1002D0000E949A0061E088E00E949A0061E081E15A
:1002E0000E949A0061E08AE00E949A0060E0C1CF1B
:1002F00061E08DE00E949A0061E088E00E949A002F
:1003000061E081E10E949A0061E08AE00E949A0027
:1003100061E085E00E949A0060E0AFCF61E08DE08F
:100320000E949A0061E088E00E949A0061E081E109
:100330000E949A0061E08AE00E949A0061E085E0F4
:100340000E949A0061E080E10E949A0060E099CFEB
:1003500061E08DE00E949A0061E088E00E949A00CE
:1003600061E081E10E949A0061E08AE00E949A00C7
:1003700061E085E00E949A0061E080E10E949A00BD
:1003800061E084E00E949A0060E07FCF61E089E054
:100390000E949A0060E083E00E949A0060E082E0A0
:1003A0000E949A0060E08CE00E949A0060E08FE07A
:1003B0000E949A0060E08BE00E949A0060E087E073
:1003C0000E949A0060E086E061CF60E089E00E94D0
:1003D0009A0061E0E0CF60E089E00E949A0060E06E
:1003E00083E00E949A0061E0DACF60E089E00E9439
:1003F0009A0060E083E00E949A0060E082E00E9440
:100400009A0061E0D0CF60E089E00E949A0060E04D
:1004100083E00E949A0060E082E00E949A0060E01F
:100420008CE00E949A0061E0C2CF60E089E00E9407
:100430009A0060E083E00E949A0060E082E00E94FF
:100440009A0060E08CE00E949A0060E08FE00E94D9
:100450009A0061E0B0CF60E089E00E949A0060E01D
:1004600083E00E949A0060E082E00E949A0060E0CF
:100470008CE00E949A0060E08FE00E949A0060E0A9
:100480008BE00E949A0061E09ACF60E089E00E94D0
:100490009A0060E083E00E949A0060E082E00E949F
:1004A0009A0060E08CE00E949A0060E08FE00E9479
:1004B0009A0060E08BE00E949A0060E087E00E9472
:1004C0009A0061E080CF08951F920F920FB60F92AD
:1004D00011242F933F938F939F93AF93BF9380915A
:1004E000050190910601A0910701B091080130919A
:1004F000040123E0230F2D3758F50196A11DB11DEE
:10050000209304018093050190930601A0930701B5
:10051000B09308018091090190910A01A0910B010B
:10052000B0910C010196A11DB11D8093090190931A
:100530000A01A0930B01B0930C01BF91AF919F9161
:100540008F913F912F910F900FBE0F901F90189594
:1005500026E8230F0296A11DB11DD2CF789484B551
:10056000826084BD84B5816084BD85B5826085BDAF
:1005700085B5816085BD80916E00816080936E003D
:10058000109281008091810082608093810080912F
:1005900081008160809381008091800081608093E0
:1005A00080008091B10084608093B1008091B000A0
:1005B00081608093B00080917A00846080937A009B
:1005C00080917A00826080937A0080917A008160C5
:1005D00080937A0080917A00806880937A001092EC
:1005E000C100C2E08C2F0E947B00CF5FCE30D1F7DC
:1005F0008EE00E947B008FE00E947B0080E10E94E1
:100600007B0081E10E947B0098E0492E512C612CF7
:10061000712CC0E0D0E00E94A103A30192010E94CE
:10062000F9036F5F7F4F8F4F9F4F70930E01609361
:100630000D010E940B010E94A103A30192010E94DF
:10064000F903675F7F4F8F4F9F4F70930E01609349
:100650000D010E940B010E94E6004B015C0184E643
:10066000C82ED12CE12CF12C0E94E60068197909E2
:100670008A099B09683E734081059105A8F321E032
:10068000C21AD108E108F10888EE880E83E0981EAE
:10069000A11CB11CC114D104E104F10429F7209775
:1006A00009F4B9CF0E940000B6CF8F929F92AF920B
:1006B000BF92CF92DF92EF92FF92CF93DF93EC0144
:1006C000688179818A819B81611571058105910518
:1006D00021F464E279ED8BE597E02DE133EF41E021
:1006E00050E00E94F90349015A019B01AC01A7EABD
:1006F000B1E40E9418046B017C01ACEEB4EFA501DB
:1007000094010E942604C60ED71EE81EF91EF7FEAD
:1007100006C081E0C81AD108E10880E8F80AC8825A
:10072000D982EA82FB82C701B6019F77DF91CF9120
:10073000FF90EF90DF90CF90BF90AF909F908F9001
:1007400008958F929F92AF92BF92CF92DF92EF92D5
:10075000FF926091000170910101809102019091DE
:100760000301611571058105910521F464E279EDBC
:100770008BE597E02DE133EF41E050E00E94F90373
:1007800049015A019B01AC01A7EAB1E40E94180497
:100790006B017C01ACEEB4EFA50194010E9426042C
:1007A000C60ED71EE81EF91EF7FE06C081E0C81A65
:1007B000D108E10880E8F80AC0920001D092010156
:1007C000E0920201F0920301C701B6019F77FF900A
:1007D000EF90DF90CF90BF90AF909F908F90089553
:1007E00060930001709301018093020190930301D3
:1007F0000895052E97FB1EF400940E94100457FDE7
:1008000007D00E942B0407FC03D04EF40C94100474
:1008100050954095309521953F4F4F4F5F4F08952C
:1008200090958095709561957F4F8F4F9F4F08955C
:100830000E944D04A59F900DB49F900DA49F800D24
:10084000911D11240895B7FF0C9418040E941804F8
:10085000821B930B0895A1E21A2EAA1BBB1BFD015C
:100860000DC0AA1FBB1FEE1FFF1FA217B307E4078F
:10087000F50720F0A21BB30BE40BF50B661F771FE7
:10088000881F991F1A9469F76095709580959095C7
:100890009B01AC01BD01CF010895A29FB001B39FA0
:1008A000C001A39F700D811D1124911DB29F700D79
:1008B000811D1124911D0895EE0FFF1F0590F491E5
:0808C000E02D0994F894FFCF2C
:0408C800010000002B
:107800000C94343C0C94513C0C94513C0C94513CE1
:107810000C94513C0C94513C0C94513C0C94513CB4
:107820000C94513C0C94513C0C94513C0C94513CA4
:107830000C94513C0C94513C0C94513C0C94513C94
:107840000C94513C0C94513C0C94513C0C94513C84
:107850000C94513C0C94513C0C94513C0C94513C74
:107860000C94513C0C94513C11241FBECFEFD8E036
:10787000DEBFCDBF11E0A0E0B1E0ECE9FFE702C060
:1078800005900D92A230B107D9F712E0A2E0B1E065
:1078900001C01D92AD30B107E1F70E942D3D0C945F
:1078A000CC3F0C94003C982F959595959595959582
:1078B000905D8F708A307CF0282F295A8091C0000B
:1078C00085FFFCCF9093C6008091C00085FFFCCF60
:1078D0002093C6000895282F205DF0CF982F809127
:1078E000C00085FFFCCF9093C6000895EF92FF92F1
:1078F0000F931F93EE24FF2487018091C00087FD22
:1079000017C00894E11CF11C011D111D81E4E8164B
:1079100082E4F8068FE0080780E0180770F3E09132
:107920000401F091050109958091C00087FFE9CF1E
:107930008091C6001F910F91FF90EF9008950E94D3
:10794000763C982F8091C00085FFFCCF9093C600B5
:1079500091362CF490330CF09053892F089597555D
:10796000892F08951F930E949F3C182F0E949F3CCF
:107970001295107F810F1F9108951F93182F882350
:1079800021F00E94763C1150E1F71F9108951F935A
:10799000182F0E94763C803249F0809103018F5F5E
:1079A000809303018530C1F01F9108958091C0003C
:1079B00085FFFCCF84E18093C6008091C00085FFE5
:1079C000FCCF1093C6008091C00085FFFCCF80E102
:1079D0008093C6001F910895E0910401F091050184
:1079E00009951F9108950E94763C803241F0809164
:1079F00003018F5F80930301853081F008958091AA
:107A0000C00085FFFCCF84E18093C6008091C00058
:107A100085FFFCCF80E18093C6000895E0910401CA
:107A2000F09105010995089540E951E08823A1F0FE
:107A30002D9A28EE33E0FA013197F1F721503040CA
:107A4000D1F72D9828EE33E0FA013197F1F7215064
:107A50003040D1F7815061F708953F924F925F9285
:107A60006F927F928F929F92AF92BF92CF92DF924E
:107A7000EF92FF920F931F93CF93DF93000080E16B
:107A80008093C4001092C50088E18093C10086E015
:107A90008093C2005098589A259A81E00E94143D24
:107AA00024E1F22E9EE1E92E85E9D82E0FE0C02ECA
:107AB00010E1B12EAA24A394B1E49B2EA6E58A2E50
:107AC000F2E57F2EE0E26E2E79E4572E63E5462E36
:107AD00050E5352E0E94763C8033B1F18133B9F107
:107AE000803409F46FC0813409F476C0823409F41B
:107AF00085C0853409F488C0803531F1823521F1A3
:107B0000813511F1853509F485C0863509F48DC0BC
:107B1000843609F496C0843709F403C1853709F423
:107B200072C1863709F466C0809103018F5F80932C
:107B30000301853079F6E0910401F0910501099582
:107B40000E94763C803351F60E94F33CC3CF0E94E2
:107B5000763C803249F78091C00085FFFCCFF092DF
:107B6000C6008091C00085FFFCCF9092C600809136
:107B7000C00085FFFCCF8092C6008091C00085FFC9
:107B8000FCCF7092C6008091C00085FFFCCF609250
:107B9000C6008091C00085FFFCCF5092C600809146
:107BA000C00085FFFCCF4092C6008091C00085FFD9
:107BB000FCCF3092C6008091C00085FFFCCFB09210
:107BC000C60088CF0E94763C863808F4BDCF0E945C
:107BD000763C0E94F33C7ECF0E94763C803809F4CC
:107BE0009CC0813809F40BC1823809F43CC1883942
:107BF00009F48FC080E00E94C73C6CCF84E10E94F2
:107C0000BD3C0E94F33C66CF85E00E94BD3C0E94D3
:107C1000F33C60CF0E94763C809306010E94763C44
:107C2000809307010E94F33C55CF0E94763C80333D
:107C300009F41DC183E00E94BD3C80E00E94C73C66
:107C400049CF0E94763C809309020E94763C809343
:107C5000080280910C028E7F80930C020E94763C79
:107C6000853409F415C18091080290910902892B8D
:107C700089F000E010E00E94763CF801E85FFE4FDA
:107C800080830F5F1F4F80910802909109020817AF
:107C9000190788F30E94763C803209F045CF809125
:107CA0000C0280FF01C16091060170910701660F0F
:107CB000771F7093070160930601A0910802B091AD
:107CC00009021097C9F0E8E0F1E09B01AD014E0F09
:107CD0005F1FF999FECF32BD21BD819180BDFA9A17
:107CE000F99A2F5F3F4FE417F50799F76A0F7B1F4B
:107CF00070930701609306018091C00085FFFCCF5F
:107D0000F092C6008091C00085FFFCCFB092C60003
:107D1000E1CE83E00E94C73CDDCE82E00E94C73CFA
:107D2000D9CE0E94763C809309020E94763C8093D3
:107D300008028091060190910701880F991F909386
:107D40000701809306010E94763C853409F4A6C0A1
:107D500080910C028E7F80930C020E94763C8032D0
:107D600009F0B8CE8091C00085FFFCCFF092C6002C
:107D7000609108027091090261157105B9F140E046
:107D800050E080910C02A82FA170B82FB27011C0E2
:107D9000BB2309F45CC0E0910601F0910701319624
:107DA000F0930701E09306014F5F5F4F46175707B7
:107DB000E8F4AA2369F3F999FECF209106013091E6
:107DC000070132BD21BDF89A90B58091C00085FFB2
:107DD000FCCF9093C6002F5F3F4F30930701209355
:107DE00006014F5F5F4F4617570718F38091C00099
:107DF00085FDE5CE8091C00085FFF8CFE0CE81E023
:107E00000E94C73C67CE0E94763C803209F08CCE3F
:107E10008091C00085FFFCCFF092C6008091C00029
:107E200085FFFCCFE092C6008091C00085FFFCCFAB
:107E3000D092C6008091C00085FFFCCFC092C600E2
:107E40008091C00085FFFCCFB092C60043CEE09188
:107E50000601F091070194918091C00085FFFCCF4D
:107E60009093C6009CCF80E10E94C73C33CE0E9415
:107E7000763C0E94763C182F0E94763C112309F430
:107E800083C0113009F484C08FE00E94C73C22CE29
:107E900080910C02816080930C02E5CE80910C02EF
:107EA000816080930C0259CF809107018823880F4D
:107EB000880B8A2180930B02809106019091070123
:107EC000880F991F90930701809306018091080203
:107ED00080FF09C080910802909109020196909359
:107EE000090280930802F894F999FECF1127E091D6
:107EF0000601F0910701C8E0D1E08091080290915D
:107F00000902103091F40091570001700130D9F34B
:107F100003E000935700E89500915700017001308D
:107F2000D9F301E100935700E89509901990009169
:107F3000570001700130D9F301E000935700E89534
:107F40001395103498F011270091570001700130FB
:107F5000D9F305E000935700E895009157000170B0
:107F60000130D9F301E100935700E895329602976A
:107F700009F0C7CF103011F00296E5CF112480919F
:107F8000C00085FFB9CEBCCE8EE10E94C73CA2CD19
:0C7F900085E90E94C73C9ECDF894FFCF0D
:027F9C00800063
:040000030000780081
:00000001FF
